{
  "contractName": "NFTAuction",
  "abi": [
    {
      "inputs": [],
      "stateMutability": "nonpayable",
      "type": "constructor"
    },
    {
      "anonymous": false,
      "inputs": [
        {
          "indexed": true,
          "internalType": "address",
          "name": "owner",
          "type": "address"
        },
        {
          "indexed": true,
          "internalType": "address",
          "name": "approved",
          "type": "address"
        },
        {
          "indexed": true,
          "internalType": "uint256",
          "name": "tokenId",
          "type": "uint256"
        }
      ],
      "name": "Approval",
      "type": "event"
    },
    {
      "anonymous": false,
      "inputs": [
        {
          "indexed": true,
          "internalType": "address",
          "name": "owner",
          "type": "address"
        },
        {
          "indexed": true,
          "internalType": "address",
          "name": "operator",
          "type": "address"
        },
        {
          "indexed": false,
          "internalType": "bool",
          "name": "approved",
          "type": "bool"
        }
      ],
      "name": "ApprovalForAll",
      "type": "event"
    },
    {
      "anonymous": false,
      "inputs": [
        {
          "indexed": true,
          "internalType": "address",
          "name": "from",
          "type": "address"
        },
        {
          "indexed": true,
          "internalType": "address",
          "name": "to",
          "type": "address"
        },
        {
          "indexed": true,
          "internalType": "uint256",
          "name": "tokenId",
          "type": "uint256"
        }
      ],
      "name": "Transfer",
      "type": "event"
    },
    {
      "inputs": [
        {
          "internalType": "uint256",
          "name": "",
          "type": "uint256"
        }
      ],
      "name": "IDused",
      "outputs": [
        {
          "internalType": "bool",
          "name": "",
          "type": "bool"
        }
      ],
      "stateMutability": "view",
      "type": "function"
    },
    {
      "inputs": [],
      "name": "NFTName",
      "outputs": [
        {
          "internalType": "string",
          "name": "",
          "type": "string"
        }
      ],
      "stateMutability": "view",
      "type": "function"
    },
    {
      "inputs": [],
      "name": "NFTSymbol",
      "outputs": [
        {
          "internalType": "string",
          "name": "",
          "type": "string"
        }
      ],
      "stateMutability": "view",
      "type": "function"
    },
    {
      "inputs": [
        {
          "internalType": "uint256",
          "name": "",
          "type": "uint256"
        }
      ],
      "name": "allNFT",
      "outputs": [
        {
          "internalType": "uint256",
          "name": "ID",
          "type": "uint256"
        },
        {
          "internalType": "string",
          "name": "name",
          "type": "string"
        },
        {
          "internalType": "string",
          "name": "description",
          "type": "string"
        },
        {
          "internalType": "string",
          "name": "URI",
          "type": "string"
        },
        {
          "internalType": "address payable",
          "name": "minter",
          "type": "address"
        },
        {
          "internalType": "address payable",
          "name": "owner",
          "type": "address"
        },
        {
          "internalType": "address payable",
          "name": "bidder",
          "type": "address"
        },
        {
          "internalType": "uint256",
          "name": "nowprice",
          "type": "uint256"
        },
        {
          "internalType": "uint256",
          "name": "endtime",
          "type": "uint256"
        },
        {
          "internalType": "uint256",
          "name": "saletimes",
          "type": "uint256"
        },
        {
          "internalType": "bool",
          "name": "onsale",
          "type": "bool"
        },
        {
          "internalType": "bool",
          "name": "claim",
          "type": "bool"
        }
      ],
      "stateMutability": "view",
      "type": "function"
    },
    {
      "inputs": [
        {
          "internalType": "address",
          "name": "to",
          "type": "address"
        },
        {
          "internalType": "uint256",
          "name": "tokenId",
          "type": "uint256"
        }
      ],
      "name": "approve",
      "outputs": [],
      "stateMutability": "nonpayable",
      "type": "function"
    },
    {
      "inputs": [
        {
          "internalType": "address",
          "name": "owner",
          "type": "address"
        }
      ],
      "name": "balanceOf",
      "outputs": [
        {
          "internalType": "uint256",
          "name": "",
          "type": "uint256"
        }
      ],
      "stateMutability": "view",
      "type": "function"
    },
    {
      "inputs": [
        {
          "internalType": "uint256",
          "name": "tokenId",
          "type": "uint256"
        }
      ],
      "name": "getApproved",
      "outputs": [
        {
          "internalType": "address",
          "name": "",
          "type": "address"
        }
      ],
      "stateMutability": "view",
      "type": "function"
    },
    {
      "inputs": [
        {
          "internalType": "address",
          "name": "owner",
          "type": "address"
        },
        {
          "internalType": "address",
          "name": "operator",
          "type": "address"
        }
      ],
      "name": "isApprovedForAll",
      "outputs": [
        {
          "internalType": "bool",
          "name": "",
          "type": "bool"
        }
      ],
      "stateMutability": "view",
      "type": "function"
    },
    {
      "inputs": [],
      "name": "name",
      "outputs": [
        {
          "internalType": "string",
          "name": "",
          "type": "string"
        }
      ],
      "stateMutability": "view",
      "type": "function"
    },
    {
      "inputs": [],
      "name": "number",
      "outputs": [
        {
          "internalType": "uint256",
          "name": "",
          "type": "uint256"
        }
      ],
      "stateMutability": "view",
      "type": "function"
    },
    {
      "inputs": [
        {
          "internalType": "uint256",
          "name": "tokenId",
          "type": "uint256"
        }
      ],
      "name": "ownerOf",
      "outputs": [
        {
          "internalType": "address",
          "name": "",
          "type": "address"
        }
      ],
      "stateMutability": "view",
      "type": "function"
    },
    {
      "inputs": [
        {
          "internalType": "uint256",
          "name": "",
          "type": "uint256"
        },
        {
          "internalType": "uint256",
          "name": "",
          "type": "uint256"
        }
      ],
      "name": "priowner",
      "outputs": [
        {
          "internalType": "address payable",
          "name": "",
          "type": "address"
        }
      ],
      "stateMutability": "view",
      "type": "function"
    },
    {
      "inputs": [
        {
          "internalType": "address",
          "name": "from",
          "type": "address"
        },
        {
          "internalType": "address",
          "name": "to",
          "type": "address"
        },
        {
          "internalType": "uint256",
          "name": "tokenId",
          "type": "uint256"
        }
      ],
      "name": "safeTransferFrom",
      "outputs": [],
      "stateMutability": "nonpayable",
      "type": "function"
    },
    {
      "inputs": [
        {
          "internalType": "address",
          "name": "from",
          "type": "address"
        },
        {
          "internalType": "address",
          "name": "to",
          "type": "address"
        },
        {
          "internalType": "uint256",
          "name": "tokenId",
          "type": "uint256"
        },
        {
          "internalType": "bytes",
          "name": "_data",
          "type": "bytes"
        }
      ],
      "name": "safeTransferFrom",
      "outputs": [],
      "stateMutability": "nonpayable",
      "type": "function"
    },
    {
      "inputs": [
        {
          "internalType": "address",
          "name": "operator",
          "type": "address"
        },
        {
          "internalType": "bool",
          "name": "approved",
          "type": "bool"
        }
      ],
      "name": "setApprovalForAll",
      "outputs": [],
      "stateMutability": "nonpayable",
      "type": "function"
    },
    {
      "inputs": [
        {
          "internalType": "bytes4",
          "name": "interfaceId",
          "type": "bytes4"
        }
      ],
      "name": "supportsInterface",
      "outputs": [
        {
          "internalType": "bool",
          "name": "",
          "type": "bool"
        }
      ],
      "stateMutability": "view",
      "type": "function"
    },
    {
      "inputs": [],
      "name": "symbol",
      "outputs": [
        {
          "internalType": "string",
          "name": "",
          "type": "string"
        }
      ],
      "stateMutability": "view",
      "type": "function"
    },
    {
      "inputs": [
        {
          "internalType": "uint256",
          "name": "tokenId",
          "type": "uint256"
        }
      ],
      "name": "tokenURI",
      "outputs": [
        {
          "internalType": "string",
          "name": "",
          "type": "string"
        }
      ],
      "stateMutability": "view",
      "type": "function"
    },
    {
      "inputs": [
        {
          "internalType": "address",
          "name": "from",
          "type": "address"
        },
        {
          "internalType": "address",
          "name": "to",
          "type": "address"
        },
        {
          "internalType": "uint256",
          "name": "tokenId",
          "type": "uint256"
        }
      ],
      "name": "transferFrom",
      "outputs": [],
      "stateMutability": "nonpayable",
      "type": "function"
    },
    {
      "inputs": [
        {
          "internalType": "string",
          "name": "NFTname",
          "type": "string"
        },
        {
          "internalType": "string",
          "name": "NFTtokenURI",
          "type": "string"
        },
        {
          "internalType": "string",
          "name": "NFTdesc",
          "type": "string"
        }
      ],
      "name": "mintNFT",
      "outputs": [],
      "stateMutability": "nonpayable",
      "type": "function"
    },
    {
      "inputs": [
        {
          "internalType": "uint256",
          "name": "_tokenID",
          "type": "uint256"
        },
        {
          "internalType": "uint256",
          "name": "startpirce",
          "type": "uint256"
        },
        {
          "internalType": "uint256",
          "name": "time",
          "type": "uint256"
        }
      ],
      "name": "startAuction",
      "outputs": [
        {
          "internalType": "bool",
          "name": "",
          "type": "bool"
        }
      ],
      "stateMutability": "nonpayable",
      "type": "function"
    },
    {
      "inputs": [
        {
          "internalType": "uint256",
          "name": "_tokenID",
          "type": "uint256"
        },
        {
          "internalType": "uint256",
          "name": "price",
          "type": "uint256"
        }
      ],
      "name": "bidNFT",
      "outputs": [
        {
          "internalType": "bool",
          "name": "",
          "type": "bool"
        }
      ],
      "stateMutability": "nonpayable",
      "type": "function"
    },
    {
      "inputs": [
        {
          "internalType": "uint256",
          "name": "_tokenID",
          "type": "uint256"
        }
      ],
      "name": "endAuction",
      "outputs": [
        {
          "internalType": "bool",
          "name": "",
          "type": "bool"
        }
      ],
      "stateMutability": "nonpayable",
      "type": "function"
    },
    {
      "inputs": [
        {
          "internalType": "uint256",
          "name": "_tokenID",
          "type": "uint256"
        }
      ],
      "name": "claimNFT",
      "outputs": [
        {
          "internalType": "bool",
          "name": "",
          "type": "bool"
        }
      ],
      "stateMutability": "payable",
      "type": "function"
    },
    {
      "inputs": [
        {
          "internalType": "uint256",
          "name": "_tokenID",
          "type": "uint256"
        }
      ],
      "name": "getprice",
      "outputs": [
        {
          "internalType": "uint256",
          "name": "",
          "type": "uint256"
        }
      ],
      "stateMutability": "view",
      "type": "function"
    },
    {
      "inputs": [
        {
          "internalType": "uint256",
          "name": "_tokenID",
          "type": "uint256"
        }
      ],
      "name": "getminter",
      "outputs": [
        {
          "internalType": "address",
          "name": "",
          "type": "address"
        }
      ],
      "stateMutability": "view",
      "type": "function"
    },
    {
      "inputs": [
        {
          "internalType": "uint256",
          "name": "_tokenID",
          "type": "uint256"
        }
      ],
      "name": "getowner",
      "outputs": [
        {
          "internalType": "address",
          "name": "",
          "type": "address"
        }
      ],
      "stateMutability": "view",
      "type": "function"
    },
    {
      "inputs": [
        {
          "internalType": "uint256",
          "name": "_tokenID",
          "type": "uint256"
        }
      ],
      "name": "getdesc",
      "outputs": [
        {
          "internalType": "string",
          "name": "",
          "type": "string"
        }
      ],
      "stateMutability": "view",
      "type": "function"
    },
    {
      "inputs": [
        {
          "internalType": "uint256",
          "name": "_tokenID",
          "type": "uint256"
        }
      ],
      "name": "isend",
      "outputs": [
        {
          "internalType": "bool",
          "name": "",
          "type": "bool"
        }
      ],
      "stateMutability": "view",
      "type": "function"
    },
    {
      "inputs": [
        {
          "internalType": "uint256",
          "name": "_tokenID",
          "type": "uint256"
        }
      ],
      "name": "bidman",
      "outputs": [
        {
          "internalType": "address",
          "name": "",
          "type": "address"
        }
      ],
      "stateMutability": "view",
      "type": "function"
    },
    {
      "inputs": [
        {
          "internalType": "uint256",
          "name": "_tokenID",
          "type": "uint256"
        }
      ],
      "name": "lefttime",
      "outputs": [
        {
          "internalType": "uint256",
          "name": "",
          "type": "uint256"
        }
      ],
      "stateMutability": "view",
      "type": "function"
    },
    {
      "inputs": [],
      "name": "gettime",
      "outputs": [
        {
          "internalType": "uint256",
          "name": "",
          "type": "uint256"
        }
      ],
      "stateMutability": "view",
      "type": "function"
    },
    {
      "inputs": [
        {
          "internalType": "uint256",
          "name": "_tokenID",
          "type": "uint256"
        },
        {
          "internalType": "uint256",
          "name": "times",
          "type": "uint256"
        }
      ],
      "name": "getownertime",
      "outputs": [
        {
          "internalType": "address",
          "name": "",
          "type": "address"
        }
      ],
      "stateMutability": "view",
      "type": "function"
    },
    {
      "inputs": [
        {
          "internalType": "address",
          "name": "owner",
          "type": "address"
        }
      ],
      "name": "getnum",
      "outputs": [
        {
          "internalType": "uint256",
          "name": "",
          "type": "uint256"
        }
      ],
      "stateMutability": "view",
      "type": "function"
    }
  ],
  "bytecode": "0x60806040523480156200001157600080fd5b506040518060400160405280600781526020017f4e465420415254000000000000000000000000000000000000000000000000008152506040518060400160405280600581526020017f4e41435a5200000000000000000000000000000000000000000000000000000081525081600090805190602001906200009692919062000154565b508060019080519060200190620000af92919062000154565b5050506040518060400160405280600781526020017f4e4654204152540000000000000000000000000000000000000000000000000081525060079080519060200190620000ff92919062000154565b506040518060400160405280600581526020017f4e41435a52000000000000000000000000000000000000000000000000000000815250600890805190602001906200014d92919062000154565b5062000269565b828054620001629062000233565b90600052602060002090601f016020900481019282620001865760008555620001d2565b82601f10620001a157805160ff1916838001178555620001d2565b82800160010185558215620001d2579182015b82811115620001d1578251825591602001919060010190620001b4565b5b509050620001e19190620001e5565b5090565b5b8082111562000200576000816000905550600101620001e6565b5090565b7f4e487b7100000000000000000000000000000000000000000000000000000000600052602260045260246000fd5b600060028204905060018216806200024c57607f821691505b6020821081141562000263576200026262000204565b5b50919050565b61599d80620002796000396000f3fe6080604052600436106101f95760003560e01c80638381f58a1161010d578063b88d4fde116100a0578063d52618921161006f578063d526189214610803578063e743752b14610840578063e985e9c514610888578063fa71acce146108c5578063fe5c873a14610902576101f9565b8063b88d4fde14610723578063b9a2de3a1461074c578063bf77692814610789578063c87b56dd146107c6576101f9565b806395d89b41116100dc57806395d89b4114610667578063a00b244e14610692578063a22cb465146106cf578063a42d20ae146106f8576101f9565b80638381f58a14610597578063889d51d8146105c257806391e078bb146105ff57806394f4e6791461063c576101f9565b806323b872dd1161019057806342842e0e1161015f57806342842e0e1461047a5780634845ae7a146104a357806356b99b8e146104e05780636352211e1461051d57806370a082311461055a576101f9565b806323b872dd1461039a5780632bc19fc1146103c3578063368cb0371461040057806337ddba341461043d576101f9565b8063095ea7b3116101cc578063095ea7b3146102e05780630c3b7b72146103095780630ca1988b1461033257806316d061a51461036f576101f9565b806301ffc9a7146101fe578063055199711461023b57806306fdde0314610278578063081812fc146102a3575b600080fd5b34801561020a57600080fd5b506102256004803603810190610220919061414a565b610932565b6040516102329190614192565b60405180910390f35b34801561024757600080fd5b50610262600480360381019061025d91906141e3565b610a14565b60405161026f9190614192565b60405180910390f35b34801561028457600080fd5b5061028d61104f565b60405161029a91906142bc565b60405180910390f35b3480156102af57600080fd5b506102ca60048036038101906102c591906142de565b6110e1565b6040516102d7919061434c565b60405180910390f35b3480156102ec57600080fd5b5061030760048036038101906103029190614393565b611166565b005b34801561031557600080fd5b50610330600480360381019061032b9190614508565b61127e565b005b34801561033e57600080fd5b50610359600480360381019061035491906145af565b6115fc565b60405161036691906145eb565b60405180910390f35b34801561037b57600080fd5b5061038461160e565b60405161039191906145eb565b60405180910390f35b3480156103a657600080fd5b506103c160048036038101906103bc9190614606565b611616565b005b3480156103cf57600080fd5b506103ea60048036038101906103e591906142de565b611676565b6040516103f791906142bc565b60405180910390f35b34801561040c57600080fd5b50610427600480360381019061042291906142de565b61171e565b6040516104349190614192565b60405180910390f35b34801561044957600080fd5b50610464600480360381019061045f91906141e3565b61174b565b604051610471919061467a565b60405180910390f35b34801561048657600080fd5b506104a1600480360381019061049c9190614606565b61178d565b005b3480156104af57600080fd5b506104ca60048036038101906104c591906142de565b6117ad565b6040516104d7919061434c565b60405180910390f35b3480156104ec57600080fd5b50610507600480360381019061050291906142de565b6117ed565b604051610514919061434c565b60405180910390f35b34801561052957600080fd5b50610544600480360381019061053f91906142de565b61182d565b604051610551919061434c565b60405180910390f35b34801561056657600080fd5b50610581600480360381019061057c91906145af565b6118df565b60405161058e91906145eb565b60405180910390f35b3480156105a357600080fd5b506105ac611997565b6040516105b991906145eb565b60405180910390f35b3480156105ce57600080fd5b506105e960048036038101906105e491906142de565b61199d565b6040516105f69190614192565b60405180910390f35b34801561060b57600080fd5b5061062660048036038101906106219190614695565b6119bd565b6040516106339190614192565b60405180910390f35b34801561064857600080fd5b50610651611f6d565b60405161065e91906142bc565b60405180910390f35b34801561067357600080fd5b5061067c611ffb565b60405161068991906142bc565b60405180910390f35b34801561069e57600080fd5b506106b960048036038101906106b491906141e3565b61208d565b6040516106c6919061434c565b60405180910390f35b3480156106db57600080fd5b506106f660048036038101906106f19190614714565b6120dc565b005b34801561070457600080fd5b5061070d61225d565b60405161071a91906142bc565b60405180910390f35b34801561072f57600080fd5b5061074a600480360381019061074591906147f5565b6122eb565b005b34801561075857600080fd5b50610773600480360381019061076e91906142de565b61234d565b6040516107809190614192565b60405180910390f35b34801561079557600080fd5b506107b060048036038101906107ab91906142de565b612899565b6040516107bd91906145eb565b60405180910390f35b3480156107d257600080fd5b506107ed60048036038101906107e891906142de565b6128b9565b6040516107fa91906142bc565b60405180910390f35b34801561080f57600080fd5b5061082a600480360381019061082591906142de565b612a0b565b604051610837919061434c565b60405180910390f35b34801561084c57600080fd5b50610867600480360381019061086291906142de565b612a4b565b60405161087f9c9b9a99989796959493929190614878565b60405180910390f35b34801561089457600080fd5b506108af60048036038101906108aa9190614947565b612cbd565b6040516108bc9190614192565b60405180910390f35b3480156108d157600080fd5b506108ec60048036038101906108e791906142de565b612d51565b6040516108f991906145eb565b60405180910390f35b61091c600480360381019061091791906142de565b612d87565b6040516109299190614192565b60405180910390f35b60007f80ac58cd000000000000000000000000000000000000000000000000000000007bffffffffffffffffffffffffffffffffffffffffffffffffffffffff1916827bffffffffffffffffffffffffffffffffffffffffffffffffffffffff191614806109fd57507f5b5e139f000000000000000000000000000000000000000000000000000000007bffffffffffffffffffffffffffffffffffffffffffffffffffffffff1916827bffffffffffffffffffffffffffffffffffffffffffffffffffffffff1916145b80610a0d5750610a0c826134fe565b5b9050919050565b6000610a1f8361182d565b73ffffffffffffffffffffffffffffffffffffffff163373ffffffffffffffffffffffffffffffffffffffff161415610a8d576040517f08c379a0000000000000000000000000000000000000000000000000000000008152600401610a84906149d3565b60405180910390fd5b6000600a60008581526020019081526020016000206040518061018001604052908160008201548152602001600182018054610ac890614a22565b80601f0160208091040260200160405190810160405280929190818152602001828054610af490614a22565b8015610b415780601f10610b1657610100808354040283529160200191610b41565b820191906000526020600020905b815481529060010190602001808311610b2457829003601f168201915b50505050508152602001600282018054610b5a90614a22565b80601f0160208091040260200160405190810160405280929190818152602001828054610b8690614a22565b8015610bd35780601f10610ba857610100808354040283529160200191610bd3565b820191906000526020600020905b815481529060010190602001808311610bb657829003601f168201915b50505050508152602001600382018054610bec90614a22565b80601f0160208091040260200160405190810160405280929190818152602001828054610c1890614a22565b8015610c655780601f10610c3a57610100808354040283529160200191610c65565b820191906000526020600020905b815481529060010190602001808311610c4857829003601f168201915b505050505081526020016004820160009054906101000a900473ffffffffffffffffffffffffffffffffffffffff1673ffffffffffffffffffffffffffffffffffffffff1673ffffffffffffffffffffffffffffffffffffffff1681526020016005820160009054906101000a900473ffffffffffffffffffffffffffffffffffffffff1673ffffffffffffffffffffffffffffffffffffffff1673ffffffffffffffffffffffffffffffffffffffff1681526020016006820160009054906101000a900473ffffffffffffffffffffffffffffffffffffffff1673ffffffffffffffffffffffffffffffffffffffff1673ffffffffffffffffffffffffffffffffffffffff168152602001600782015481526020016008820154815260200160098201548152602001600a820160009054906101000a900460ff16151515158152602001600a820160019054906101000a900460ff16151515158152505090508061010001514210610e0d576040517f08c379a0000000000000000000000000000000000000000000000000000000008152600401610e0490614aa0565b60405180910390fd5b8060e001518311610e53576040517f08c379a0000000000000000000000000000000000000000000000000000000008152600401610e4a90614b0c565b60405180910390fd5b828160e0018181525050338160c0019073ffffffffffffffffffffffffffffffffffffffff16908173ffffffffffffffffffffffffffffffffffffffff168152505080600a6000868152602001908152602001600020600082015181600001556020820151816001019080519060200190610ecf92919061403b565b506040820151816002019080519060200190610eec92919061403b565b506060820151816003019080519060200190610f0992919061403b565b5060808201518160040160006101000a81548173ffffffffffffffffffffffffffffffffffffffff021916908373ffffffffffffffffffffffffffffffffffffffff16021790555060a08201518160050160006101000a81548173ffffffffffffffffffffffffffffffffffffffff021916908373ffffffffffffffffffffffffffffffffffffffff16021790555060c08201518160060160006101000a81548173ffffffffffffffffffffffffffffffffffffffff021916908373ffffffffffffffffffffffffffffffffffffffff16021790555060e082015181600701556101008201518160080155610120820151816009015561014082015181600a0160006101000a81548160ff02191690831515021790555061016082015181600a0160016101000a81548160ff021916908315150217905550905050600191505092915050565b60606000805461105e90614a22565b80601f016020809104026020016040519081016040528092919081815260200182805461108a90614a22565b80156110d75780601f106110ac576101008083540402835291602001916110d7565b820191906000526020600020905b8154815290600101906020018083116110ba57829003601f168201915b5050505050905090565b60006110ec82613568565b61112b576040517f08c379a000000000000000000000000000000000000000000000000000000000815260040161112290614b9e565b60405180910390fd5b6004600083815260200190815260200160002060009054906101000a900473ffffffffffffffffffffffffffffffffffffffff169050919050565b60006111718261182d565b90508073ffffffffffffffffffffffffffffffffffffffff168373ffffffffffffffffffffffffffffffffffffffff1614156111e2576040517f08c379a00000000000000000000000000000000000000000000000000000000081526004016111d990614c30565b60405180910390fd5b8073ffffffffffffffffffffffffffffffffffffffff166112016135d4565b73ffffffffffffffffffffffffffffffffffffffff161480611230575061122f8161122a6135d4565b612cbd565b5b61126f576040517f08c379a000000000000000000000000000000000000000000000000000000000815260040161126690614cc2565b60405180910390fd5b61127983836135dc565b505050565b6009600081548092919061129190614d11565b919050555060006009549050600b600082815260200190815260200160002060009054906101000a900460ff16156112fe576040517f08c379a00000000000000000000000000000000000000000000000000000000081526004016112f590614da6565b60405180910390fd5b6001600b600083815260200190815260200160002060006101000a81548160ff0219169083151502179055506113343382613695565b61133e8184613863565b600060405180610180016040528060095481526020018681526020018481526020018581526020013373ffffffffffffffffffffffffffffffffffffffff1681526020013373ffffffffffffffffffffffffffffffffffffffff168152602001600073ffffffffffffffffffffffffffffffffffffffff168152602001600081526020014281526020016000815260200160001515815260200160001515815250905080600a6000600954815260200190815260200160002060008201518160000155602082015181600101908051906020019061141d92919061403b565b50604082015181600201908051906020019061143a92919061403b565b50606082015181600301908051906020019061145792919061403b565b5060808201518160040160006101000a81548173ffffffffffffffffffffffffffffffffffffffff021916908373ffffffffffffffffffffffffffffffffffffffff16021790555060a08201518160050160006101000a81548173ffffffffffffffffffffffffffffffffffffffff021916908373ffffffffffffffffffffffffffffffffffffffff16021790555060c08201518160060160006101000a81548173ffffffffffffffffffffffffffffffffffffffff021916908373ffffffffffffffffffffffffffffffffffffffff16021790555060e082015181600701556101008201518160080155610120820151816009015561014082015181600a0160006101000a81548160ff02191690831515021790555061016082015181600a0160016101000a81548160ff02191690831515021790555090505033600c6000848152602001908152602001600020600080815260200190815260200160002060006101000a81548173ffffffffffffffffffffffffffffffffffffffff021916908373ffffffffffffffffffffffffffffffffffffffff1602179055505050505050565b6000611607826118df565b9050919050565b600042905090565b6116276116216135d4565b826138d7565b611666576040517f08c379a000000000000000000000000000000000000000000000000000000000815260040161165d90614e38565b60405180910390fd5b6116718383836139b5565b505050565b6060600a6000838152602001908152602001600020600201805461169990614a22565b80601f01602080910402602001604051908101604052809291908181526020018280546116c590614a22565b80156117125780601f106116e757610100808354040283529160200191611712565b820191906000526020600020905b8154815290600101906020018083116116f557829003601f168201915b50505050509050919050565b6000600a6000838152602001908152602001600020600a0160009054906101000a900460ff169050919050565b600c6020528160005260406000206020528060005260406000206000915091509054906101000a900473ffffffffffffffffffffffffffffffffffffffff1681565b6117a8838383604051806020016040528060008152506122eb565b505050565b6000600a600083815260200190815260200160002060050160009054906101000a900473ffffffffffffffffffffffffffffffffffffffff169050919050565b6000600a600083815260200190815260200160002060060160009054906101000a900473ffffffffffffffffffffffffffffffffffffffff169050919050565b6000806002600084815260200190815260200160002060009054906101000a900473ffffffffffffffffffffffffffffffffffffffff169050600073ffffffffffffffffffffffffffffffffffffffff168173ffffffffffffffffffffffffffffffffffffffff1614156118d6576040517f08c379a00000000000000000000000000000000000000000000000000000000081526004016118cd90614eca565b60405180910390fd5b80915050919050565b60008073ffffffffffffffffffffffffffffffffffffffff168273ffffffffffffffffffffffffffffffffffffffff161415611950576040517f08c379a000000000000000000000000000000000000000000000000000000000815260040161194790614f5c565b60405180910390fd5b600360008373ffffffffffffffffffffffffffffffffffffffff1673ffffffffffffffffffffffffffffffffffffffff168152602001908152602001600020549050919050565b60095481565b600b6020528060005260406000206000915054906101000a900460ff1681565b60006119c88461182d565b73ffffffffffffffffffffffffffffffffffffffff163373ffffffffffffffffffffffffffffffffffffffff1614611a35576040517f08c379a0000000000000000000000000000000000000000000000000000000008152600401611a2c90614fc8565b60405180910390fd5b6000600a60008681526020019081526020016000206040518061018001604052908160008201548152602001600182018054611a7090614a22565b80601f0160208091040260200160405190810160405280929190818152602001828054611a9c90614a22565b8015611ae95780601f10611abe57610100808354040283529160200191611ae9565b820191906000526020600020905b815481529060010190602001808311611acc57829003601f168201915b50505050508152602001600282018054611b0290614a22565b80601f0160208091040260200160405190810160405280929190818152602001828054611b2e90614a22565b8015611b7b5780601f10611b5057610100808354040283529160200191611b7b565b820191906000526020600020905b815481529060010190602001808311611b5e57829003601f168201915b50505050508152602001600382018054611b9490614a22565b80601f0160208091040260200160405190810160405280929190818152602001828054611bc090614a22565b8015611c0d5780601f10611be257610100808354040283529160200191611c0d565b820191906000526020600020905b815481529060010190602001808311611bf057829003601f168201915b505050505081526020016004820160009054906101000a900473ffffffffffffffffffffffffffffffffffffffff1673ffffffffffffffffffffffffffffffffffffffff1673ffffffffffffffffffffffffffffffffffffffff1681526020016005820160009054906101000a900473ffffffffffffffffffffffffffffffffffffffff1673ffffffffffffffffffffffffffffffffffffffff1673ffffffffffffffffffffffffffffffffffffffff1681526020016006820160009054906101000a900473ffffffffffffffffffffffffffffffffffffffff1673ffffffffffffffffffffffffffffffffffffffff1673ffffffffffffffffffffffffffffffffffffffff168152602001600782015481526020016008820154815260200160098201548152602001600a820160009054906101000a900460ff16151515158152602001600a820160019054906101000a900460ff1615151515815250509050838160e00181815250508242611d849190614fe8565b8161010001818152505060018161014001901515908115158152505060008161016001901515908115158152505080600a6000878152602001908152602001600020600082015181600001556020820151816001019080519060200190611dec92919061403b565b506040820151816002019080519060200190611e0992919061403b565b506060820151816003019080519060200190611e2692919061403b565b5060808201518160040160006101000a81548173ffffffffffffffffffffffffffffffffffffffff021916908373ffffffffffffffffffffffffffffffffffffffff16021790555060a08201518160050160006101000a81548173ffffffffffffffffffffffffffffffffffffffff021916908373ffffffffffffffffffffffffffffffffffffffff16021790555060c08201518160060160006101000a81548173ffffffffffffffffffffffffffffffffffffffff021916908373ffffffffffffffffffffffffffffffffffffffff16021790555060e082015181600701556101008201518160080155610120820151816009015561014082015181600a0160006101000a81548160ff02191690831515021790555061016082015181600a0160016101000a81548160ff02191690831515021790555090505060019150509392505050565b60078054611f7a90614a22565b80601f0160208091040260200160405190810160405280929190818152602001828054611fa690614a22565b8015611ff35780601f10611fc857610100808354040283529160200191611ff3565b820191906000526020600020905b815481529060010190602001808311611fd657829003601f168201915b505050505081565b60606001805461200a90614a22565b80601f016020809104026020016040519081016040528092919081815260200182805461203690614a22565b80156120835780601f1061205857610100808354040283529160200191612083565b820191906000526020600020905b81548152906001019060200180831161206657829003601f168201915b5050505050905090565b6000600c6000848152602001908152602001600020600083815260200190815260200160002060009054906101000a900473ffffffffffffffffffffffffffffffffffffffff16905092915050565b6120e46135d4565b73ffffffffffffffffffffffffffffffffffffffff168273ffffffffffffffffffffffffffffffffffffffff161415612152576040517f08c379a00000000000000000000000000000000000000000000000000000000081526004016121499061508a565b60405180910390fd5b806005600061215f6135d4565b73ffffffffffffffffffffffffffffffffffffffff1673ffffffffffffffffffffffffffffffffffffffff16815260200190815260200160002060008473ffffffffffffffffffffffffffffffffffffffff1673ffffffffffffffffffffffffffffffffffffffff16815260200190815260200160002060006101000a81548160ff0219169083151502179055508173ffffffffffffffffffffffffffffffffffffffff1661220c6135d4565b73ffffffffffffffffffffffffffffffffffffffff167f17307eab39ab6107e8899845ad3d59bd9653f200f220920489ca2b5937696c31836040516122519190614192565b60405180910390a35050565b6008805461226a90614a22565b80601f016020809104026020016040519081016040528092919081815260200182805461229690614a22565b80156122e35780601f106122b8576101008083540402835291602001916122e3565b820191906000526020600020905b8154815290600101906020018083116122c657829003601f168201915b505050505081565b6122fc6122f66135d4565b836138d7565b61233b576040517f08c379a000000000000000000000000000000000000000000000000000000000815260040161233290614e38565b60405180910390fd5b61234784848484613c11565b50505050565b600080600a6000848152602001908152602001600020604051806101800160405290816000820154815260200160018201805461238990614a22565b80601f01602080910402602001604051908101604052809291908181526020018280546123b590614a22565b80156124025780601f106123d757610100808354040283529160200191612402565b820191906000526020600020905b8154815290600101906020018083116123e557829003601f168201915b5050505050815260200160028201805461241b90614a22565b80601f016020809104026020016040519081016040528092919081815260200182805461244790614a22565b80156124945780601f1061246957610100808354040283529160200191612494565b820191906000526020600020905b81548152906001019060200180831161247757829003601f168201915b505050505081526020016003820180546124ad90614a22565b80601f01602080910402602001604051908101604052809291908181526020018280546124d990614a22565b80156125265780601f106124fb57610100808354040283529160200191612526565b820191906000526020600020905b81548152906001019060200180831161250957829003601f168201915b505050505081526020016004820160009054906101000a900473ffffffffffffffffffffffffffffffffffffffff1673ffffffffffffffffffffffffffffffffffffffff1673ffffffffffffffffffffffffffffffffffffffff1681526020016005820160009054906101000a900473ffffffffffffffffffffffffffffffffffffffff1673ffffffffffffffffffffffffffffffffffffffff1673ffffffffffffffffffffffffffffffffffffffff1681526020016006820160009054906101000a900473ffffffffffffffffffffffffffffffffffffffff1673ffffffffffffffffffffffffffffffffffffffff1673ffffffffffffffffffffffffffffffffffffffff168152602001600782015481526020016008820154815260200160098201548152602001600a820160009054906101000a900460ff16151515158152602001600a820160019054906101000a900460ff161515151581525050905080610100015142116126ce576040517f08c379a00000000000000000000000000000000000000000000000000000000081526004016126c5906150f6565b60405180910390fd5b60008161014001901515908115158152505080600a600085815260200190815260200160002060008201518160000155602082015181600101908051906020019061271a92919061403b565b50604082015181600201908051906020019061273792919061403b565b50606082015181600301908051906020019061275492919061403b565b5060808201518160040160006101000a81548173ffffffffffffffffffffffffffffffffffffffff021916908373ffffffffffffffffffffffffffffffffffffffff16021790555060a08201518160050160006101000a81548173ffffffffffffffffffffffffffffffffffffffff021916908373ffffffffffffffffffffffffffffffffffffffff16021790555060c08201518160060160006101000a81548173ffffffffffffffffffffffffffffffffffffffff021916908373ffffffffffffffffffffffffffffffffffffffff16021790555060e082015181600701556101008201518160080155610120820151816009015561014082015181600a0160006101000a81548160ff02191690831515021790555061016082015181600a0160016101000a81548160ff0219169083151502179055509050506001915050919050565b6000600a6000838152602001908152602001600020600701549050919050565b60606128c482613568565b612903576040517f08c379a00000000000000000000000000000000000000000000000000000000081526004016128fa90615188565b60405180910390fd5b600060066000848152602001908152602001600020805461292390614a22565b80601f016020809104026020016040519081016040528092919081815260200182805461294f90614a22565b801561299c5780601f106129715761010080835404028352916020019161299c565b820191906000526020600020905b81548152906001019060200180831161297f57829003601f168201915b5050505050905060006129ad613c6d565b90506000815114156129c3578192505050612a06565b6000825111156129f85780826040516020016129e09291906151e4565b60405160208183030381529060405292505050612a06565b612a0184613c84565b925050505b919050565b6000600a600083815260200190815260200160002060040160009054906101000a900473ffffffffffffffffffffffffffffffffffffffff169050919050565b600a602052806000526040600020600091509050806000015490806001018054612a7490614a22565b80601f0160208091040260200160405190810160405280929190818152602001828054612aa090614a22565b8015612aed5780601f10612ac257610100808354040283529160200191612aed565b820191906000526020600020905b815481529060010190602001808311612ad057829003601f168201915b505050505090806002018054612b0290614a22565b80601f0160208091040260200160405190810160405280929190818152602001828054612b2e90614a22565b8015612b7b5780601f10612b5057610100808354040283529160200191612b7b565b820191906000526020600020905b815481529060010190602001808311612b5e57829003601f168201915b505050505090806003018054612b9090614a22565b80601f0160208091040260200160405190810160405280929190818152602001828054612bbc90614a22565b8015612c095780601f10612bde57610100808354040283529160200191612c09565b820191906000526020600020905b815481529060010190602001808311612bec57829003601f168201915b5050505050908060040160009054906101000a900473ffffffffffffffffffffffffffffffffffffffff16908060050160009054906101000a900473ffffffffffffffffffffffffffffffffffffffff16908060060160009054906101000a900473ffffffffffffffffffffffffffffffffffffffff169080600701549080600801549080600901549080600a0160009054906101000a900460ff169080600a0160019054906101000a900460ff1690508c565b6000600560008473ffffffffffffffffffffffffffffffffffffffff1673ffffffffffffffffffffffffffffffffffffffff16815260200190815260200160002060008373ffffffffffffffffffffffffffffffffffffffff1673ffffffffffffffffffffffffffffffffffffffff16815260200190815260200160002060009054906101000a900460ff16905092915050565b600080429050600081600a600086815260200190815260200160002060080154612d7b9190615208565b90508092505050919050565b600080600a60008481526020019081526020016000206040518061018001604052908160008201548152602001600182018054612dc390614a22565b80601f0160208091040260200160405190810160405280929190818152602001828054612def90614a22565b8015612e3c5780601f10612e1157610100808354040283529160200191612e3c565b820191906000526020600020905b815481529060010190602001808311612e1f57829003601f168201915b50505050508152602001600282018054612e5590614a22565b80601f0160208091040260200160405190810160405280929190818152602001828054612e8190614a22565b8015612ece5780601f10612ea357610100808354040283529160200191612ece565b820191906000526020600020905b815481529060010190602001808311612eb157829003601f168201915b50505050508152602001600382018054612ee790614a22565b80601f0160208091040260200160405190810160405280929190818152602001828054612f1390614a22565b8015612f605780601f10612f3557610100808354040283529160200191612f60565b820191906000526020600020905b815481529060010190602001808311612f4357829003601f168201915b505050505081526020016004820160009054906101000a900473ffffffffffffffffffffffffffffffffffffffff1673ffffffffffffffffffffffffffffffffffffffff1673ffffffffffffffffffffffffffffffffffffffff1681526020016005820160009054906101000a900473ffffffffffffffffffffffffffffffffffffffff1673ffffffffffffffffffffffffffffffffffffffff1673ffffffffffffffffffffffffffffffffffffffff1681526020016006820160009054906101000a900473ffffffffffffffffffffffffffffffffffffffff1673ffffffffffffffffffffffffffffffffffffffff1673ffffffffffffffffffffffffffffffffffffffff168152602001600782015481526020016008820154815260200160098201548152602001600a820160009054906101000a900460ff16151515158152602001600a820160019054906101000a900460ff16151515158152505090506000151581610140015115151461310d576040517f08c379a000000000000000000000000000000000000000000000000000000000815260040161310490615288565b60405180910390fd5b600115158161016001511515141561315a576040517f08c379a0000000000000000000000000000000000000000000000000000000008152600401613151906152f4565b60405180910390fd5b8060c0015173ffffffffffffffffffffffffffffffffffffffff163373ffffffffffffffffffffffffffffffffffffffff16146131cc576040517f08c379a00000000000000000000000000000000000000000000000000000000081526004016131c390615360565b60405180910390fd5b806101200180518091906131df90614d11565b815250506131f28160a0015133856139b5565b8060a0015173ffffffffffffffffffffffffffffffffffffffff166108fc349081150290604051600060405180830381858888f1935050505015801561323c573d6000803e3d6000fd5b50338160a0019073ffffffffffffffffffffffffffffffffffffffff16908173ffffffffffffffffffffffffffffffffffffffff168152505033600c60008581526020019081526020016000206000836101200151815260200190815260200160002060006101000a81548173ffffffffffffffffffffffffffffffffffffffff021916908373ffffffffffffffffffffffffffffffffffffffff16021790555060008160c0019073ffffffffffffffffffffffffffffffffffffffff16908173ffffffffffffffffffffffffffffffffffffffff168152505060008160e001818152505060008161014001901515908115158152505060018161016001901515908115158152505080600a600085815260200190815260200160002060008201518160000155602082015181600101908051906020019061337f92919061403b565b50604082015181600201908051906020019061339c92919061403b565b5060608201518160030190805190602001906133b992919061403b565b5060808201518160040160006101000a81548173ffffffffffffffffffffffffffffffffffffffff021916908373ffffffffffffffffffffffffffffffffffffffff16021790555060a08201518160050160006101000a81548173ffffffffffffffffffffffffffffffffffffffff021916908373ffffffffffffffffffffffffffffffffffffffff16021790555060c08201518160060160006101000a81548173ffffffffffffffffffffffffffffffffffffffff021916908373ffffffffffffffffffffffffffffffffffffffff16021790555060e082015181600701556101008201518160080155610120820151816009015561014082015181600a0160006101000a81548160ff02191690831515021790555061016082015181600a0160016101000a81548160ff0219169083151502179055509050506001915050919050565b60007f01ffc9a7000000000000000000000000000000000000000000000000000000007bffffffffffffffffffffffffffffffffffffffffffffffffffffffff1916827bffffffffffffffffffffffffffffffffffffffffffffffffffffffff1916149050919050565b60008073ffffffffffffffffffffffffffffffffffffffff166002600084815260200190815260200160002060009054906101000a900473ffffffffffffffffffffffffffffffffffffffff1673ffffffffffffffffffffffffffffffffffffffff1614159050919050565b600033905090565b816004600083815260200190815260200160002060006101000a81548173ffffffffffffffffffffffffffffffffffffffff021916908373ffffffffffffffffffffffffffffffffffffffff160217905550808273ffffffffffffffffffffffffffffffffffffffff1661364f8361182d565b73ffffffffffffffffffffffffffffffffffffffff167f8c5be1e5ebec7d5bd14f71427d1e84f3dd0314c0f7b2291e5b200ac8c7c3b92560405160405180910390a45050565b600073ffffffffffffffffffffffffffffffffffffffff168273ffffffffffffffffffffffffffffffffffffffff161415613705576040517f08c379a00000000000000000000000000000000000000000000000000000000081526004016136fc906153cc565b60405180910390fd5b61370e81613568565b1561374e576040517f08c379a000000000000000000000000000000000000000000000000000000000815260040161374590615438565b60405180910390fd5b61375a60008383613d2b565b6001600360008473ffffffffffffffffffffffffffffffffffffffff1673ffffffffffffffffffffffffffffffffffffffff16815260200190815260200160002060008282546137aa9190614fe8565b92505081905550816002600083815260200190815260200160002060006101000a81548173ffffffffffffffffffffffffffffffffffffffff021916908373ffffffffffffffffffffffffffffffffffffffff160217905550808273ffffffffffffffffffffffffffffffffffffffff16600073ffffffffffffffffffffffffffffffffffffffff167fddf252ad1be2c89b69c2b068fc378daa952ba7f163c4a11628f55a4df523b3ef60405160405180910390a45050565b61386c82613568565b6138ab576040517f08c379a00000000000000000000000000000000000000000000000000000000081526004016138a2906154ca565b60405180910390fd5b806006600084815260200190815260200160002090805190602001906138d292919061403b565b505050565b60006138e282613568565b613921576040517f08c379a00000000000000000000000000000000000000000000000000000000081526004016139189061555c565b60405180910390fd5b600061392c8361182d565b90508073ffffffffffffffffffffffffffffffffffffffff168473ffffffffffffffffffffffffffffffffffffffff16148061399b57508373ffffffffffffffffffffffffffffffffffffffff16613983846110e1565b73ffffffffffffffffffffffffffffffffffffffff16145b806139ac57506139ab8185612cbd565b5b91505092915050565b8273ffffffffffffffffffffffffffffffffffffffff166139d58261182d565b73ffffffffffffffffffffffffffffffffffffffff1614613a2b576040517f08c379a0000000000000000000000000000000000000000000000000000000008152600401613a22906155ee565b60405180910390fd5b600073ffffffffffffffffffffffffffffffffffffffff168273ffffffffffffffffffffffffffffffffffffffff161415613a9b576040517f08c379a0000000000000000000000000000000000000000000000000000000008152600401613a9290615680565b60405180910390fd5b613aa6838383613d2b565b613ab16000826135dc565b6001600360008573ffffffffffffffffffffffffffffffffffffffff1673ffffffffffffffffffffffffffffffffffffffff1681526020019081526020016000206000828254613b019190615208565b925050819055506001600360008473ffffffffffffffffffffffffffffffffffffffff1673ffffffffffffffffffffffffffffffffffffffff1681526020019081526020016000206000828254613b589190614fe8565b92505081905550816002600083815260200190815260200160002060006101000a81548173ffffffffffffffffffffffffffffffffffffffff021916908373ffffffffffffffffffffffffffffffffffffffff160217905550808273ffffffffffffffffffffffffffffffffffffffff168473ffffffffffffffffffffffffffffffffffffffff167fddf252ad1be2c89b69c2b068fc378daa952ba7f163c4a11628f55a4df523b3ef60405160405180910390a4505050565b613c1c8484846139b5565b613c2884848484613d30565b613c67576040517f08c379a0000000000000000000000000000000000000000000000000000000008152600401613c5e90615712565b60405180910390fd5b50505050565b606060405180602001604052806000815250905090565b6060613c8f82613568565b613cce576040517f08c379a0000000000000000000000000000000000000000000000000000000008152600401613cc5906157a4565b60405180910390fd5b6000613cd8613c6d565b90506000815111613cf85760405180602001604052806000815250613d23565b80613d0284613ec7565b604051602001613d139291906151e4565b6040516020818303038152906040525b915050919050565b505050565b6000613d518473ffffffffffffffffffffffffffffffffffffffff16614028565b15613eba578373ffffffffffffffffffffffffffffffffffffffff1663150b7a02613d7a6135d4565b8786866040518563ffffffff1660e01b8152600401613d9c9493929190615819565b602060405180830381600087803b158015613db657600080fd5b505af1925050508015613de757506040513d601f19601f82011682018060405250810190613de4919061587a565b60015b613e6a573d8060008114613e17576040519150601f19603f3d011682016040523d82523d6000602084013e613e1c565b606091505b50600081511415613e62576040517f08c379a0000000000000000000000000000000000000000000000000000000008152600401613e5990615712565b60405180910390fd5b805181602001fd5b63150b7a0260e01b7bffffffffffffffffffffffffffffffffffffffffffffffffffffffff1916817bffffffffffffffffffffffffffffffffffffffffffffffffffffffff191614915050613ebf565b600190505b949350505050565b60606000821415613f0f576040518060400160405280600181526020017f30000000000000000000000000000000000000000000000000000000000000008152509050614023565b600082905060005b60008214613f41578080613f2a90614d11565b915050600a82613f3a91906158d6565b9150613f17565b60008167ffffffffffffffff811115613f5d57613f5c6143dd565b5b6040519080825280601f01601f191660200182016040528015613f8f5781602001600182028036833780820191505090505b5090505b6000851461401c57600182613fa89190615208565b9150600a85613fb79190615907565b6030613fc39190614fe8565b60f81b818381518110613fd957613fd8615938565b5b60200101907effffffffffffffffffffffffffffffffffffffffffffffffffffffffffffff1916908160001a905350600a8561401591906158d6565b9450613f93565b8093505050505b919050565b600080823b905060008111915050919050565b82805461404790614a22565b90600052602060002090601f01602090048101928261406957600085556140b0565b82601f1061408257805160ff19168380011785556140b0565b828001600101855582156140b0579182015b828111156140af578251825591602001919060010190614094565b5b5090506140bd91906140c1565b5090565b5b808211156140da5760008160009055506001016140c2565b5090565b6000604051905090565b600080fd5b600080fd5b60007fffffffff0000000000000000000000000000000000000000000000000000000082169050919050565b614127816140f2565b811461413257600080fd5b50565b6000813590506141448161411e565b92915050565b6000602082840312156141605761415f6140e8565b5b600061416e84828501614135565b91505092915050565b60008115159050919050565b61418c81614177565b82525050565b60006020820190506141a76000830184614183565b92915050565b6000819050919050565b6141c0816141ad565b81146141cb57600080fd5b50565b6000813590506141dd816141b7565b92915050565b600080604083850312156141fa576141f96140e8565b5b6000614208858286016141ce565b9250506020614219858286016141ce565b9150509250929050565b600081519050919050565b600082825260208201905092915050565b60005b8381101561425d578082015181840152602081019050614242565b8381111561426c576000848401525b50505050565b6000601f19601f8301169050919050565b600061428e82614223565b614298818561422e565b93506142a881856020860161423f565b6142b181614272565b840191505092915050565b600060208201905081810360008301526142d68184614283565b905092915050565b6000602082840312156142f4576142f36140e8565b5b6000614302848285016141ce565b91505092915050565b600073ffffffffffffffffffffffffffffffffffffffff82169050919050565b60006143368261430b565b9050919050565b6143468161432b565b82525050565b6000602082019050614361600083018461433d565b92915050565b6143708161432b565b811461437b57600080fd5b50565b60008135905061438d81614367565b92915050565b600080604083850312156143aa576143a96140e8565b5b60006143b88582860161437e565b92505060206143c9858286016141ce565b9150509250929050565b600080fd5b600080fd5b7f4e487b7100000000000000000000000000000000000000000000000000000000600052604160045260246000fd5b61441582614272565b810181811067ffffffffffffffff82111715614434576144336143dd565b5b80604052505050565b60006144476140de565b9050614453828261440c565b919050565b600067ffffffffffffffff821115614473576144726143dd565b5b61447c82614272565b9050602081019050919050565b82818337600083830152505050565b60006144ab6144a684614458565b61443d565b9050828152602081018484840111156144c7576144c66143d8565b5b6144d2848285614489565b509392505050565b600082601f8301126144ef576144ee6143d3565b5b81356144ff848260208601614498565b91505092915050565b600080600060608486031215614521576145206140e8565b5b600084013567ffffffffffffffff81111561453f5761453e6140ed565b5b61454b868287016144da565b935050602084013567ffffffffffffffff81111561456c5761456b6140ed565b5b614578868287016144da565b925050604084013567ffffffffffffffff811115614599576145986140ed565b5b6145a5868287016144da565b9150509250925092565b6000602082840312156145c5576145c46140e8565b5b60006145d38482850161437e565b91505092915050565b6145e5816141ad565b82525050565b600060208201905061460060008301846145dc565b92915050565b60008060006060848603121561461f5761461e6140e8565b5b600061462d8682870161437e565b935050602061463e8682870161437e565b925050604061464f868287016141ce565b9150509250925092565b60006146648261430b565b9050919050565b61467481614659565b82525050565b600060208201905061468f600083018461466b565b92915050565b6000806000606084860312156146ae576146ad6140e8565b5b60006146bc868287016141ce565b93505060206146cd868287016141ce565b92505060406146de868287016141ce565b9150509250925092565b6146f181614177565b81146146fc57600080fd5b50565b60008135905061470e816146e8565b92915050565b6000806040838503121561472b5761472a6140e8565b5b60006147398582860161437e565b925050602061474a858286016146ff565b9150509250929050565b600067ffffffffffffffff82111561476f5761476e6143dd565b5b61477882614272565b9050602081019050919050565b600061479861479384614754565b61443d565b9050828152602081018484840111156147b4576147b36143d8565b5b6147bf848285614489565b509392505050565b600082601f8301126147dc576147db6143d3565b5b81356147ec848260208601614785565b91505092915050565b6000806000806080858703121561480f5761480e6140e8565b5b600061481d8782880161437e565b945050602061482e8782880161437e565b935050604061483f878288016141ce565b925050606085013567ffffffffffffffff8111156148605761485f6140ed565b5b61486c878288016147c7565b91505092959194509250565b60006101808201905061488e600083018f6145dc565b81810360208301526148a0818e614283565b905081810360408301526148b4818d614283565b905081810360608301526148c8818c614283565b90506148d7608083018b61466b565b6148e460a083018a61466b565b6148f160c083018961466b565b6148fe60e08301886145dc565b61490c6101008301876145dc565b61491a6101208301866145dc565b614928610140830185614183565b614936610160830184614183565b9d9c50505050505050505050505050565b6000806040838503121561495e5761495d6140e8565b5b600061496c8582860161437e565b925050602061497d8582860161437e565b9150509250929050565b7f43616e74206f776e657200000000000000000000000000000000000000000000600082015250565b60006149bd600a8361422e565b91506149c882614987565b602082019050919050565b600060208201905081810360008301526149ec816149b0565b9050919050565b7f4e487b7100000000000000000000000000000000000000000000000000000000600052602260045260246000fd5b60006002820490506001821680614a3a57607f821691505b60208210811415614a4e57614a4d6149f3565b5b50919050565b7f41756374696f6e20656e64656400000000000000000000000000000000000000600082015250565b6000614a8a600d8361422e565b9150614a9582614a54565b602082019050919050565b60006020820190508181036000830152614ab981614a7d565b9050919050565b7f4d6f6e6579206e6f7420656e6f75676800000000000000000000000000000000600082015250565b6000614af660108361422e565b9150614b0182614ac0565b602082019050919050565b60006020820190508181036000830152614b2581614ae9565b9050919050565b7f4552433732313a20617070726f76656420717565727920666f72206e6f6e657860008201527f697374656e7420746f6b656e0000000000000000000000000000000000000000602082015250565b6000614b88602c8361422e565b9150614b9382614b2c565b604082019050919050565b60006020820190508181036000830152614bb781614b7b565b9050919050565b7f4552433732313a20617070726f76616c20746f2063757272656e74206f776e6560008201527f7200000000000000000000000000000000000000000000000000000000000000602082015250565b6000614c1a60218361422e565b9150614c2582614bbe565b604082019050919050565b60006020820190508181036000830152614c4981614c0d565b9050919050565b7f4552433732313a20617070726f76652063616c6c6572206973206e6f74206f7760008201527f6e6572206e6f7220617070726f76656420666f7220616c6c0000000000000000602082015250565b6000614cac60388361422e565b9150614cb782614c50565b604082019050919050565b60006020820190508181036000830152614cdb81614c9f565b9050919050565b7f4e487b7100000000000000000000000000000000000000000000000000000000600052601160045260246000fd5b6000614d1c826141ad565b91507fffffffffffffffffffffffffffffffffffffffffffffffffffffffffffffffff821415614d4f57614d4e614ce2565b5b600182019050919050565b7f4944207573656400000000000000000000000000000000000000000000000000600082015250565b6000614d9060078361422e565b9150614d9b82614d5a565b602082019050919050565b60006020820190508181036000830152614dbf81614d83565b9050919050565b7f4552433732313a207472616e736665722063616c6c6572206973206e6f74206f60008201527f776e6572206e6f7220617070726f766564000000000000000000000000000000602082015250565b6000614e2260318361422e565b9150614e2d82614dc6565b604082019050919050565b60006020820190508181036000830152614e5181614e15565b9050919050565b7f4552433732313a206f776e657220717565727920666f72206e6f6e657869737460008201527f656e7420746f6b656e0000000000000000000000000000000000000000000000602082015250565b6000614eb460298361422e565b9150614ebf82614e58565b604082019050919050565b60006020820190508181036000830152614ee381614ea7565b9050919050565b7f4552433732313a2062616c616e636520717565727920666f7220746865207a6560008201527f726f206164647265737300000000000000000000000000000000000000000000602082015250565b6000614f46602a8361422e565b9150614f5182614eea565b604082019050919050565b60006020820190508181036000830152614f7581614f39565b9050919050565b7f4e6f74206f776e65720000000000000000000000000000000000000000000000600082015250565b6000614fb260098361422e565b9150614fbd82614f7c565b602082019050919050565b60006020820190508181036000830152614fe181614fa5565b9050919050565b6000614ff3826141ad565b9150614ffe836141ad565b9250827fffffffffffffffffffffffffffffffffffffffffffffffffffffffffffffffff0382111561503357615032614ce2565b5b828201905092915050565b7f4552433732313a20617070726f766520746f2063616c6c657200000000000000600082015250565b600061507460198361422e565b915061507f8261503e565b602082019050919050565b600060208201905081810360008301526150a381615067565b9050919050565b7f41756374696f6e206e6f7420656e646564000000000000000000000000000000600082015250565b60006150e060118361422e565b91506150eb826150aa565b602082019050919050565b6000602082019050818103600083015261510f816150d3565b9050919050565b7f45524337323155524953746f726167653a2055524920717565727920666f722060008201527f6e6f6e6578697374656e7420746f6b656e000000000000000000000000000000602082015250565b600061517260318361422e565b915061517d82615116565b604082019050919050565b600060208201905081810360008301526151a181615165565b9050919050565b600081905092915050565b60006151be82614223565b6151c881856151a8565b93506151d881856020860161423f565b80840191505092915050565b60006151f082856151b3565b91506151fc82846151b3565b91508190509392505050565b6000615213826141ad565b915061521e836141ad565b92508282101561523157615230614ce2565b5b828203905092915050565b7f4e4654206f6e2073616c65000000000000000000000000000000000000000000600082015250565b6000615272600b8361422e565b915061527d8261523c565b602082019050919050565b600060208201905081810360008301526152a181615265565b9050919050565b7f416c726561647920636c61696d00000000000000000000000000000000000000600082015250565b60006152de600d8361422e565b91506152e9826152a8565b602082019050919050565b6000602082019050818103600083015261530d816152d1565b9050919050565b7f4e6f7420796f7572730000000000000000000000000000000000000000000000600082015250565b600061534a60098361422e565b915061535582615314565b602082019050919050565b600060208201905081810360008301526153798161533d565b9050919050565b7f4552433732313a206d696e7420746f20746865207a65726f2061646472657373600082015250565b60006153b660208361422e565b91506153c182615380565b602082019050919050565b600060208201905081810360008301526153e5816153a9565b9050919050565b7f4552433732313a20746f6b656e20616c7265616479206d696e74656400000000600082015250565b6000615422601c8361422e565b915061542d826153ec565b602082019050919050565b6000602082019050818103600083015261545181615415565b9050919050565b7f45524337323155524953746f726167653a2055524920736574206f66206e6f6e60008201527f6578697374656e7420746f6b656e000000000000000000000000000000000000602082015250565b60006154b4602e8361422e565b91506154bf82615458565b604082019050919050565b600060208201905081810360008301526154e3816154a7565b9050919050565b7f4552433732313a206f70657261746f7220717565727920666f72206e6f6e657860008201527f697374656e7420746f6b656e0000000000000000000000000000000000000000602082015250565b6000615546602c8361422e565b9150615551826154ea565b604082019050919050565b6000602082019050818103600083015261557581615539565b9050919050565b7f4552433732313a207472616e73666572206f6620746f6b656e2074686174206960008201527f73206e6f74206f776e0000000000000000000000000000000000000000000000602082015250565b60006155d860298361422e565b91506155e38261557c565b604082019050919050565b60006020820190508181036000830152615607816155cb565b9050919050565b7f4552433732313a207472616e7366657220746f20746865207a65726f2061646460008201527f7265737300000000000000000000000000000000000000000000000000000000602082015250565b600061566a60248361422e565b91506156758261560e565b604082019050919050565b600060208201905081810360008301526156998161565d565b9050919050565b7f4552433732313a207472616e7366657220746f206e6f6e20455243373231526560008201527f63656976657220696d706c656d656e7465720000000000000000000000000000602082015250565b60006156fc60328361422e565b9150615707826156a0565b604082019050919050565b6000602082019050818103600083015261572b816156ef565b9050919050565b7f4552433732314d657461646174613a2055524920717565727920666f72206e6f60008201527f6e6578697374656e7420746f6b656e0000000000000000000000000000000000602082015250565b600061578e602f8361422e565b915061579982615732565b604082019050919050565b600060208201905081810360008301526157bd81615781565b9050919050565b600081519050919050565b600082825260208201905092915050565b60006157eb826157c4565b6157f581856157cf565b935061580581856020860161423f565b61580e81614272565b840191505092915050565b600060808201905061582e600083018761433d565b61583b602083018661433d565b61584860408301856145dc565b818103606083015261585a81846157e0565b905095945050505050565b6000815190506158748161411e565b92915050565b6000602082840312156158905761588f6140e8565b5b600061589e84828501615865565b91505092915050565b7f4e487b7100000000000000000000000000000000000000000000000000000000600052601260045260246000fd5b60006158e1826141ad565b91506158ec836141ad565b9250826158fc576158fb6158a7565b5b828204905092915050565b6000615912826141ad565b915061591d836141ad565b92508261592d5761592c6158a7565b5b828206905092915050565b7f4e487b7100000000000000000000000000000000000000000000000000000000600052603260045260246000fdfea2646970667358221220ee6391961a8e2086fb9f5a27fd98cadd951c51c1f0a8f5242e30b60b0ba2deba64736f6c63430008090033",
  "immutableReferences": {},
  "source": "pragma solidity ^0.8.0;\nimport \"@openzeppelin/contracts/token/ERC721/extensions/ERC721URIStorage.sol\";\n\ncontract NFTAuction is ERC721URIStorage{\n    string public NFTName;\n    string public NFTSymbol;\n    uint256 public number;\n    mapping(uint256 => NFT) public allNFT;// use allNFT to save nftinfo\n    mapping(uint256 => bool) public IDused;//use this to log which name has been uesd\n    mapping(uint256 => mapping(uint256 =>  address payable)) public priowner;\n    constructor() ERC721(\"NFT ART\", \"NACZR\") {\n         NFTName = \"NFT ART\";\n         NFTSymbol = \"NACZR\";\n    }\n    \n    struct NFT{\n        uint256 ID;\n        string name;\n        string description;\n        string URI;\n        address payable minter;\n        address payable owner;\n        address payable bidder;\n        uint256 nowprice;\n        uint256 endtime;\n        uint256 saletimes;\n        bool onsale;\n        bool claim;\n        \n    }\n    \n    \n    \n    function  mintNFT(string memory NFTname, string memory NFTtokenURI, string memory NFTdesc) public{\n         number++;\n         uint256 _tokenId = number;\n         require(!IDused[_tokenId],\"ID used\");\n         IDused[_tokenId] = true;\n         \n         _mint(msg.sender, _tokenId);\n         _setTokenURI(_tokenId, NFTtokenURI);//mint and set URI\n         \n         NFT memory newNFT = NFT(\n            number,\n            NFTname,\n            NFTdesc,\n            NFTtokenURI,\n            payable(msg.sender),\n            payable(msg.sender),\n            payable(address(0)),\n            0,\n            block.timestamp,\n            0,\n            false,\n            false\n           \n        );\n        allNFT[number] = newNFT;\n        priowner[_tokenId][0] = payable(msg.sender);\n     }\n     \n     function  startAuction(uint256  _tokenID, uint256 startpirce , uint256 time)  public returns (bool ){\n         require(msg.sender == ownerOf(_tokenID),\"Not owner\");\n         NFT memory nft = allNFT[_tokenID];\n         nft.nowprice = startpirce;\n         nft.endtime = block.timestamp + time;\n         nft.onsale = true;\n         nft.claim = false;\n         allNFT[_tokenID] = nft;\n         return true;\n     }\n     \n     function  bidNFT(uint256  _tokenID, uint256 price)  public returns (bool ){\n         require(msg.sender != ownerOf(_tokenID),\"Cant owner\");\n         NFT memory nft = allNFT[_tokenID];\n         require(block.timestamp < nft.endtime,\"Auction ended\");\n         require(price > nft.nowprice,\"Money not enough\");\n         nft.nowprice = price;\n         nft.bidder = payable(msg.sender);\n         allNFT[_tokenID] = nft;\n         return true;\n     }\n     \n     function endAuction(uint256  _tokenID) public returns (bool){\n         NFT memory nft = allNFT[_tokenID];\n          require(block.timestamp > nft.endtime,\"Auction not ended\");\n          nft.onsale = false;\n          allNFT[_tokenID] = nft;\n          return true;\n     }\n     \n     function claimNFT(uint256  _tokenID) public payable returns (bool){\n         NFT memory nft = allNFT[_tokenID];\n          require(nft.onsale == false,\"NFT on sale\");\n          require(nft.claim != true,\"Already claim\");\n          require(msg.sender == nft.bidder,\"Not yours\");\n            nft.saletimes++;\n           _transfer(nft.owner, msg.sender, _tokenID);\n           \n           payable(nft.owner).transfer(msg.value);\n           \n           nft.owner = payable(msg.sender);\n           priowner[_tokenID][nft.saletimes] = payable(msg.sender);\n           nft.bidder = payable(address(0));\n           nft.nowprice = 0;\n           nft.onsale = false;\n           nft.claim = true;\n           allNFT[_tokenID] = nft;\n           \n          return true;\n     }\n     \n     \n        function getprice(uint256 _tokenID) public view returns  (uint) {\n         return allNFT[_tokenID].nowprice;\n        }\n    \n        function getminter(uint256 _tokenID) public view returns  (address) {\n         return allNFT[_tokenID].minter;\n        }\n        \n        function getowner(uint256 _tokenID) public view returns  (address) {\n         return allNFT[_tokenID].owner;\n        }\n        \n        function getdesc(uint256 _tokenID) public view returns  (string memory) {\n         return allNFT[_tokenID].description;\n        }\n        \n        function isend(uint256 _tokenID) public view returns  (bool) {\n         return allNFT[_tokenID].onsale;\n        }\n        \n         function bidman(uint256 _tokenID) public view returns  (address ) {\n         return allNFT[_tokenID].bidder;\n        }\n        \n        function lefttime(uint256 _tokenID) public view returns  (uint) {\n            uint m  = block.timestamp;\n            uint t = allNFT[_tokenID].endtime - m;\n            return t;\n        }\n\n        function gettime() public view returns  (uint) {\n            return block.timestamp;\n        }\n        \n         function getownertime(uint256 _tokenID,uint256 times) public view returns  (address) {\n            return priowner[_tokenID][times];\n        }\n\n        function getnum(address owner) public view returns  (uint) {\n            return balanceOf(owner);\n        }\n        \n}",
  "sourcePath": "D:\\3\\NftAuction\\contracts\\NFTAuction.sol",
  "compiler": {
    "name": "solc",
    "version": "0.8.9+commit.e5eed63a.Emscripten.clang"
  },
  "schemaVersion": "3.4.3",
  "updatedAt": "2021-11-06T15:32:05.454Z",
  "devdoc": {
    "kind": "dev",
    "methods": {
      "approve(address,uint256)": {
        "details": "See {IERC721-approve}."
      },
      "balanceOf(address)": {
        "details": "See {IERC721-balanceOf}."
      },
      "getApproved(uint256)": {
        "details": "See {IERC721-getApproved}."
      },
      "isApprovedForAll(address,address)": {
        "details": "See {IERC721-isApprovedForAll}."
      },
      "name()": {
        "details": "See {IERC721Metadata-name}."
      },
      "ownerOf(uint256)": {
        "details": "See {IERC721-ownerOf}."
      },
      "safeTransferFrom(address,address,uint256)": {
        "details": "See {IERC721-safeTransferFrom}."
      },
      "safeTransferFrom(address,address,uint256,bytes)": {
        "details": "See {IERC721-safeTransferFrom}."
      },
      "setApprovalForAll(address,bool)": {
        "details": "See {IERC721-setApprovalForAll}."
      },
      "supportsInterface(bytes4)": {
        "details": "See {IERC165-supportsInterface}."
      },
      "symbol()": {
        "details": "See {IERC721Metadata-symbol}."
      },
      "tokenURI(uint256)": {
        "details": "See {IERC721Metadata-tokenURI}."
      },
      "transferFrom(address,address,uint256)": {
        "details": "See {IERC721-transferFrom}."
      }
    },
    "version": 1
  },
  "userdoc": {
    "kind": "user",
    "methods": {},
    "version": 1
  }
}